{
  "_format": "hh-sol-artifact-1",
  "contractName": "PickUpLines",
  "sourceName": "contracts/PickUpLines.sol",
  "abi": [
    {
      "inputs": [],
      "stateMutability": "payable",
      "type": "constructor"
    },
    {
      "anonymous": false,
      "inputs": [
        {
          "indexed": true,
          "internalType": "address",
          "name": "from",
          "type": "address"
        },
        {
          "indexed": false,
          "internalType": "uint256",
          "name": "timestamp",
          "type": "uint256"
        },
        {
          "indexed": false,
          "internalType": "string",
          "name": "line",
          "type": "string"
        }
      ],
      "name": "NewPickUpLine",
      "type": "event"
    },
    {
      "inputs": [],
      "name": "getAllLines",
      "outputs": [
        {
          "components": [
            {
              "internalType": "address",
              "name": "writer",
              "type": "address"
            },
            {
              "internalType": "string",
              "name": "line",
              "type": "string"
            },
            {
              "internalType": "uint256",
              "name": "timestamp",
              "type": "uint256"
            }
          ],
          "internalType": "struct PickUpLines.PickUpLine[]",
          "name": "",
          "type": "tuple[]"
        }
      ],
      "stateMutability": "view",
      "type": "function"
    },
    {
      "inputs": [],
      "name": "getTotalLines",
      "outputs": [
        {
          "internalType": "uint256",
          "name": "",
          "type": "uint256"
        }
      ],
      "stateMutability": "view",
      "type": "function"
    },
    {
      "inputs": [
        {
          "internalType": "string",
          "name": "_line",
          "type": "string"
        }
      ],
      "name": "newLine",
      "outputs": [],
      "stateMutability": "nonpayable",
      "type": "function"
    }
  ],
  "bytecode": "0x6080604052620000336040518060600160405280602d815260200162001312602d91396200005b60201b620005ec1760201c565b60644442620000439190620001a8565b6200004f919062000245565b600081905550620002ec565b620000fb8160405160240162000072919062000168565b6040516020818303038152906040527f41304fac000000000000000000000000000000000000000000000000000000007bffffffffffffffffffffffffffffffffffffffffffffffffffffffff19166020820180517bffffffffffffffffffffffffffffffffffffffffffffffffffffffff8381831617835250505050620000fe60201b60201c565b50565b60008151905060006a636f6e736f6c652e6c6f679050602083016000808483855afa5050505050565b600062000134826200018c565b62000140818562000197565b9350620001528185602086016200020f565b6200015d81620002db565b840191505092915050565b6000602082019050818103600083015262000184818462000127565b905092915050565b600081519050919050565b600082825260208201905092915050565b6000620001b58262000205565b9150620001c28362000205565b9250827fffffffffffffffffffffffffffffffffffffffffffffffffffffffffffffffff03821115620001fa57620001f96200027d565b5b828201905092915050565b6000819050919050565b60005b838110156200022f57808201518184015260208101905062000212565b838111156200023f576000848401525b50505050565b6000620002528262000205565b91506200025f8362000205565b925082620002725762000271620002ac565b5b828206905092915050565b7f4e487b7100000000000000000000000000000000000000000000000000000000600052601160045260246000fd5b7f4e487b7100000000000000000000000000000000000000000000000000000000600052601260045260246000fd5b6000601f19601f8301169050919050565b61101680620002fc6000396000f3fe608060405234801561001057600080fd5b50600436106100415760003560e01c80633c1ffab1146100465780637423987114610064578063770b5eaf14610082575b600080fd5b61004e61009e565b60405161005b9190610b83565b60405180910390f35b61006c6100e9565b6040516100799190610aaf565b60405180910390f35b61009c60048036038101906100979190610855565b61023a565b005b60006100e16040518060400160405280601d81526020017f5765206861766520257320746f74616c205069636b55704c696e65732e000000815250600154610685565b600154905090565b60606004805480602002602001604051908101604052809291908181526020016000905b8282101561023157838290600052602060002090600302016040518060600160405290816000820160009054906101000a900473ffffffffffffffffffffffffffffffffffffffff1673ffffffffffffffffffffffffffffffffffffffff1673ffffffffffffffffffffffffffffffffffffffff16815260200160018201805461019690610d69565b80601f01602080910402602001604051908101604052809291908181526020018280546101c290610d69565b801561020f5780601f106101e45761010080835404028352916020019161020f565b820191906000526020600020905b8154815290600101906020018083116101f257829003601f168201915b505050505081526020016002820154815250508152602001906001019061010d565b50505050905090565b600360003373ffffffffffffffffffffffffffffffffffffffff1673ffffffffffffffffffffffffffffffffffffffff16815260200190815260200160002060009054906101000a900460ff16156102c7576040517f08c379a00000000000000000000000000000000000000000000000000000000081526004016102be90610b63565b60405180910390fd5b60018060008282546102d99190610c95565b92505081905550600460405180606001604052803373ffffffffffffffffffffffffffffffffffffffff16815260200183815260200142815250908060018154018082558091505060019003906000526020600020906003020160009091909190915060008201518160000160006101000a81548173ffffffffffffffffffffffffffffffffffffffff021916908373ffffffffffffffffffffffffffffffffffffffff160217905550602082015181600101908051906020019061039f92919061074a565b506040820151816002015550506001600360003373ffffffffffffffffffffffffffffffffffffffff1673ffffffffffffffffffffffffffffffffffffffff16815260200190815260200160002060006101000a81548160ff0219169083151502179055503373ffffffffffffffffffffffffffffffffffffffff167fe31c1c5d2435fc0b08177399b00a58890a62dc1e316b2e750a9142d65600508e428360405161044c929190610b9e565b60405180910390a2606460005442446104659190610c95565b61046f9190610c95565b6104799190610dcc565b600081905550600a600054116105e9576002339080600181540180825580915050600190039060005260206000200160009091909190916101000a81548173ffffffffffffffffffffffffffffffffffffffff021916908373ffffffffffffffffffffffffffffffffffffffff1602179055506000655af3107a400090504781111561053a576040517f08c379a000000000000000000000000000000000000000000000000000000000815260040161053190610b23565b60405180910390fd5b60003373ffffffffffffffffffffffffffffffffffffffff168260405161056090610a9a565b60006040518083038185875af1925050503d806000811461059d576040519150601f19603f3d011682016040523d82523d6000602084013e6105a2565b606091505b50509050806105e6576040517f08c379a00000000000000000000000000000000000000000000000000000000081526004016105dd90610b43565b60405180910390fd5b50505b50565b610682816040516024016106009190610ad1565b6040516020818303038152906040527f41304fac000000000000000000000000000000000000000000000000000000007bffffffffffffffffffffffffffffffffffffffffffffffffffffffff19166020820180517bffffffffffffffffffffffffffffffffffffffffffffffffffffffff8381831617835250505050610721565b50565b61071d828260405160240161069b929190610af3565b6040516020818303038152906040527f9710a9d0000000000000000000000000000000000000000000000000000000007bffffffffffffffffffffffffffffffffffffffffffffffffffffffff19166020820180517bffffffffffffffffffffffffffffffffffffffffffffffffffffffff8381831617835250505050610721565b5050565b60008151905060006a636f6e736f6c652e6c6f679050602083016000808483855afa5050505050565b82805461075690610d69565b90600052602060002090601f01602090048101928261077857600085556107bf565b82601f1061079157805160ff19168380011785556107bf565b828001600101855582156107bf579182015b828111156107be5782518255916020019190600101906107a3565b5b5090506107cc91906107d0565b5090565b5b808211156107e95760008160009055506001016107d1565b5090565b60006108006107fb84610bf3565b610bce565b90508281526020810184848401111561081857600080fd5b610823848285610d27565b509392505050565b600082601f83011261083c57600080fd5b813561084c8482602086016107ed565b91505092915050565b60006020828403121561086757600080fd5b600082013567ffffffffffffffff81111561088157600080fd5b61088d8482850161082b565b91505092915050565b60006108a28383610a2c565b905092915050565b6108b381610ceb565b82525050565b60006108c482610c34565b6108ce8185610c57565b9350836020820285016108e085610c24565b8060005b8581101561091c57848403895281516108fd8582610896565b945061090883610c4a565b925060208a019950506001810190506108e4565b50829750879550505050505092915050565b600061093982610c3f565b6109438185610c73565b9350610953818560208601610d36565b61095c81610eb9565b840191505092915050565b600061097282610c3f565b61097c8185610c84565b935061098c818560208601610d36565b61099581610eb9565b840191505092915050565b60006109ad602a83610c84565b91506109b882610eca565b604082019050919050565b60006109d0602883610c84565b91506109db82610f19565b604082019050919050565b60006109f3605a83610c84565b91506109fe82610f68565b606082019050919050565b6000610a16600083610c68565b9150610a2182610fdd565b600082019050919050565b6000606083016000830151610a4460008601826108aa565b5060208301518482036020860152610a5c828261092e565b9150506040830151610a716040860182610a7c565b508091505092915050565b610a8581610d1d565b82525050565b610a9481610d1d565b82525050565b6000610aa582610a09565b9150819050919050565b60006020820190508181036000830152610ac981846108b9565b905092915050565b60006020820190508181036000830152610aeb8184610967565b905092915050565b60006040820190508181036000830152610b0d8185610967565b9050610b1c6020830184610a8b565b9392505050565b60006020820190508181036000830152610b3c816109a0565b9050919050565b60006020820190508181036000830152610b5c816109c3565b9050919050565b60006020820190508181036000830152610b7c816109e6565b9050919050565b6000602082019050610b986000830184610a8b565b92915050565b6000604082019050610bb36000830185610a8b565b8181036020830152610bc58184610967565b90509392505050565b6000610bd8610be9565b9050610be48282610d9b565b919050565b6000604051905090565b600067ffffffffffffffff821115610c0e57610c0d610e8a565b5b610c1782610eb9565b9050602081019050919050565b6000819050602082019050919050565b600081519050919050565b600081519050919050565b6000602082019050919050565b600082825260208201905092915050565b600081905092915050565b600082825260208201905092915050565b600082825260208201905092915050565b6000610ca082610d1d565b9150610cab83610d1d565b9250827fffffffffffffffffffffffffffffffffffffffffffffffffffffffffffffffff03821115610ce057610cdf610dfd565b5b828201905092915050565b6000610cf682610cfd565b9050919050565b600073ffffffffffffffffffffffffffffffffffffffff82169050919050565b6000819050919050565b82818337600083830152505050565b60005b83811015610d54578082015181840152602081019050610d39565b83811115610d63576000848401525b50505050565b60006002820490506001821680610d8157607f821691505b60208210811415610d9557610d94610e5b565b5b50919050565b610da482610eb9565b810181811067ffffffffffffffff82111715610dc357610dc2610e8a565b5b80604052505050565b6000610dd782610d1d565b9150610de283610d1d565b925082610df257610df1610e2c565b5b828206905092915050565b7f4e487b7100000000000000000000000000000000000000000000000000000000600052601160045260246000fd5b7f4e487b7100000000000000000000000000000000000000000000000000000000600052601260045260246000fd5b7f4e487b7100000000000000000000000000000000000000000000000000000000600052602260045260246000fd5b7f4e487b7100000000000000000000000000000000000000000000000000000000600052604160045260246000fd5b6000601f19601f8301169050919050565b7f54686520636f6e74726163742068617320696e73756666696369656e7420455460008201527f482062616c616e63652e00000000000000000000000000000000000000000000602082015250565b7f4661696c656420746f207769746864726177204554482066726f6d207468652060008201527f636f6e7472616374000000000000000000000000000000000000000000000000602082015250565b7f4974207365656d7320796f7527766520706f737465642061206c696e6520616c60008201527f72656164792e20576520646f6e277420646f2072657065617473207768656e2060208201527f697420636f6d657320746f207069636b207570206c696e657321000000000000604082015250565b5056fea2646970667358221220acb9d7b03af576b54cd259ded6c27efb4530c9202ac5e78416f938448e32b6a564736f6c634300080400334920616d2074686520436865657379205069636b5570204c696e65732720736d61727420636f6e747261637421",
  "linkReferences": {},
  "deployedLinkReferences": {}
}